:020000040000FA
:0400000031EF10F0DC
:10060000003F065B4F666D7D077F6F777C395E79B3
:100610007153696D756C61646F72206465205065FB
:10062000740047616D65202D204F766572210000B2
:100630000450800B0D6E045004240F6E03AE23EFA4
:1006400003F025EF03F026EF03F00F800F50D8B42E
:100650002CEF03F02EEF03F043EF03F00F28D8A4A4
:1006600034EF03F036EF03F03EEF03F0000E016EBF
:10067000000E026E000E036E000E046E038E000E5E
:10068000046E4BEF03F0000E016E000E026E000EC2
:10069000036E000E046E0850800B0E6E0D500E1887
:1006A000D8B455EF03F057EF03F058EF03F00D8C7B
:1006B000085008240E6E07AE60EF03F062EF03F0FF
:1006C00063EF03F00E800E50D8B469EF03F06BEFC8
:1006D00003F080EF03F00E28D8A471EF03F073EF5E
:1006E00003F07BEF03F0000E056E000E066E000EA9
:1006F000076E000E086E078E000E086E88EF03F07E
:10070000000E056E000E066E000E076E000E086EDF
:100710000F500E5CD8B08FEF03F091EF03F0B8EFFD
:1007200003F00DAC96EF03F098EF03F09AEF03F0AF
:10073000800E0D1A0FC010F00EC00FF010C00EF09A
:1007400001C010F005C001F010C005F002C010F0AB
:1007500006C002F010C006F003C010F007C003F09E
:1007600010C007F004C010F008C004F010C008F07A
:10077000000E106E0F500EC009F00A6A095E000EDE
:100780000A5A0ABECDEF03F00A5009E11A0E095CBD
:10079000D8A0CDEF03F0CFEF03F006EF04F0015047
:1007A000021003100410D8A4D8EF03F0DBEF03F01D
:1007B000010EDCEF03F0000E106E000E016E000E55
:1007C000026E000E036E000E046E0EC00FF00FEFEF
:1007D00004F010A0EEEF03F0F0EF03F0F6EF03F0FB
:1007E000D89010300109106EF8EF03F0D890103255
:1007F00001A0FDEF03F0FFEF03F000EF04F0108E17
:10080000043404320332023201320F2A0E500F5CDC
:10081000D8A00DEF04F00FEF04F0E9EF03F00DBCEA
:1008200014EF04F016EF04F056EF04F00F50D8A4C4
:100830001CEF04F01EEF04F028EF04F0000E016E30
:10084000000E026E000E036E000E046E77EF05F0D0
:1008500005500126065002220750032208500422A8
:1008600004A035EF04F037EF04F0E3EF04F010A03C
:100870003CEF04F03EEF04F044EF04F0D890103069
:100880000109106E46EF04F0D890103201A04BEF32
:1008900004F04DEF04F04EEF04F0108E04340432F7
:1008A0000332023201320F2AE3EF04F00550015CFB
:1008B00006500258075003580450800A096E085029
:1008C000800A0958D8B067EF04F069EF04F094EF9C
:1008D00004F00150055C096E025006580A6E035080
:1008E00007580B6E045008580C6EFF0E0924016E59
:1008F000FF0E0A20026EFF0E0B20036EFF0E0C206F
:10090000046E800E0D1A106C1050D8A48AEF04F0FB
:100910008CEF04F09CEF04F0010E0126000E022281
:10092000032204229CEF04F00550015E0650025A97
:100930000750035A0850045A0150021003100410C3
:10094000D8A4A5EF04F0A7EF04F0DCEF04F01050FA
:10095000D8A4ADEF04F0AFEF04F0DCEF04F0000E2C
:10096000016E000E026E000E036E000E046E77EF35
:1009700005F0D890013602360336043610AEC3EFC8
:1009800004F0C5EF04F0C6EF04F0018010A0CBEF37
:1009900004F0CDEF04F0D1EF04F0D8801036D3EF9F
:1009A00004F0D89010360F50D8B4D9EF04F0DBEF34
:1009B00004F0DCEF04F00F0603AEE1EF04F0E3EF28
:1009C00004F0B9EF04F0000E0E6E10AEEAEF04F082
:1009D000ECEF04F004EF05F010C009F07F0E0916EB
:1009E000D8B4F5EF04F0F7EF04F0FBEF04F0010EDC
:1009F0000E6E04EF05F001A000EF05F002EF05F028
:100A000004EF05F0F7EF04F00E50D8B40AEF05F04C
:100A10000CEF05F037EF05F0010E0126000E022263
:100A20000322042204A017EF05F019EF05F037EFB9
:100A300005F001C009F002C00AF003C00BF004C0C9
:100A40000CF00C340C320B320A32093209C001F0BE
:100A50000AC002F00BC003F00CC004F00F28D8B499
:100A600034EF05F036EF05F037EF05F00F2A0F28C9
:100A7000D8B43DEF05F03FEF05F047EF05F00F501C
:100A8000D8A445EF05F047EF05F059EF05F0000E4B
:100A9000016E000E026E000E036E000E046E0F500B
:100AA000D8A455EF05F057EF05F059EF05F0000E0B
:100AB0000D6E0FA05EEF05F060EF05F063EF05F03F
:100AC000038E64EF05F0039ED8900F30046E0DAED8
:100AD0006CEF05F06EEF05F06FEF05F0048E01C0CE
:100AE00001F002C002F003C003F004C004F01200E1
:100AF000380E0001BA6F370EBB6F22EE00F010EE19
:100B000080F02F0EDBCFE3FFE806FCE2FBEC10F0F9
:100B10000C0EBCEC10F0800EBCEC10F0110E096E47
:100B2000060E0A6E33EC12F0000E0001B46F000ED8
:100B3000BC6F000E026E640E016EA7EC11F0180E71
:100B4000BCEC10F00001BC2B1C0EBC65AAEF05F03C
:100B5000ACEF05F099EF05F0000EBC6F000E026ED1
:100B6000640E016EA7EC11F01C0EBCEC10F000013D
:100B7000BC2B1C0EBC65BFEF05F0C1EF05F0AEEF5E
:100B800005F0B42BB451D8B4C8EF05F0CAEF05F0A6
:100B900097EF05F0010EBCEC10F0000E0001BC6FE9
:100BA0003CEC0FF00001BC2B020EBC65DAEF05F047
:100BB000DCEF05F0D0EF05F0010EBCEC10F0C3EC5B
:100BC00012F0A5EC12F0000E946E070E936E0F0E4D
:100BD000956E0001B04BB12BB24BB32BBA5120EC48
:100BE0000DF00001BB5137EC0EF0400EBCEC10F0E4
:100BF000000E0001BC6F800EBC25D96EDA6A000EB3
:100C0000DA22DF5009EC12F00001BC2B2F0EBC657C
:100C10000CEF06F00EEF06F0FBEF05F0C60EBCEC95
:100C200010F0000E09EC12F0010E09EC12F0020EA9
:100C300009EC12F0960EBCEC10F0030E09EC12F069
:100C4000040E09EC12F0050E09EC12F0FA0E000188
:100C5000B019B111D8A42FEF06F031EF06F036EF3E
:100C600006F0BA07000EB16F000EB06F5E0EB2193B
:100C700006E1B305D8A43FEF06F041EF06F046EFDA
:100C800006F0BB07000EB36F000EB26F000EB56F1B
:100C9000000EB66F000EB76F000EB86FB5C001F052
:100CA000B6C002F0B7C003F0B8C004F0000E056E85
:100CB000000E066E200E076E420E086EBAEC0EF0A5
:100CC000D8A065EF06F067EF06F069EF06F09CEF3D
:100CD00006F0B5C001F0B6C002F0B7C003F0B8C06E
:100CE00004F0000E056E000E066E800E076E3F0EBD
:100CF000086E18EC03F001C0B5F002C0B6F003C0F6
:100D0000B7F004C0B8F0B5C001F0B6C002F0B7C08B
:100D100003F0B8C004F0000E056E000E066E200E43
:100D2000076E420E086EBAEC0EF0D8A09AEF06F0ED
:100D30009CEF06F069EF06F015EC0BF00001B951DD
:100D40006E6E6F6ABEEC12F06E50011809E16F50C2
:100D50000218D8B4AEEF06F0B0EF06F0E4EF06F0FC
:100D6000BEEC12F001500001B96FB9A7BAEF06F05E
:100D7000BCEF06F0CCEF06F0380EBA19D8A4C3EFDA
:100D800006F0C5EF06F0C9EF06F03CEC09F0CCEF39
:100D900006F0BA2B82EC0CF00001B9A5D2EF06F0F8
:100DA000D4EF06F0E4EF06F0370EBB19D8A4DBEF62
:100DB00006F0DDEF06F0E1EF06F03CEC09F0E4EFC1
:100DC00006F0BB2BD2EC0BF0BBC00EF00001BA5109
:100DD00029EC0AF0E5EF05F000EF00F002BEFCEFB1
:100DE00006F0025007E1080E015CD8B0FAEF06F0F9
:100DF000FCEF06F026EF07F003500410D8B403EF21
:100E000007F005EF07F015EF07F001C005F0010E40
:100E1000066E052A0EEF07F0D8900636052E0CEF69
:100E200007F00650921214EF08F001C005F0010E11
:100E3000066E052A1EEF07F0D8900636052E1CEF29
:100E400007F00650FF0A921614EF08F002BE34EFC6
:100E500007F0025007E1100E015CD8B032EF07F046
:100E600034EF07F062EF07F003500410D8B43BEF03
:100E700007F03DEF07F04FEF07F001C005F0F80E67
:100E80000526010E066E052A48EF07F0D8900636B3
:100E9000052E46EF07F00650931214EF08F001C03C
:100EA00005F0F80E0526010E066E052A5AEF07F02A
:100EB000D8900636052E58EF07F00650FF0A931615
:100EC00014EF08F002BE70EF07F0025007E1180EB1
:100ED000015CD8B06EEF07F070EF07F09EEF07F0FF
:100EE00003500410D8B477EF07F079EF07F08BEFD9
:100EF00007F001C005F0F00E0526010E066E052A6A
:100F000084EF07F0D8900636052E82EF07F00650E2
:100F1000941214EF08F001C005F0F00E0526010E42
:100F2000066E052A96EF07F0D8900636052E94EF48
:100F300007F00650FF0A941614EF08F002BEACEF5B
:100F400007F0025007E1200E015CD8B0AAEF07F0CD
:100F5000ACEF07F0DAEF07F003500410D8B4B3EFAA
:100F600007F0B5EF07F0C7EF07F001C005F0E80E96
:100F70000526010E066E052AC0EF07F0D89006364A
:100F8000052EBEEF07F00650951214EF08F001C0D1
:100F900005F0E80E0526010E066E052AD2EF07F0D1
:100FA000D8900636052ED0EF07F00650FF0A9516AA
:100FB00014EF08F002BEE8EF07F0025007E1280E38
:100FC000015CD8B0E6EF07F0E8EF07F014EF08F0A7
:100FD00003500410D8B4EFEF07F0F1EF07F003EF80
:100FE00008F001C005F0E00E0526010E066E052A88
:100FF000FCEF07F0D8900636052EFAEF07F0065002
:10100000961214EF08F001C005F0E00E0526010E5F
:10101000066E052A0EEF08F0D8900636052E0CEF66
:1010200008F00650FF0A9616120002BE23EF08F0E1
:10103000025007E1080E015CD8B021EF08F023EF61
:1010400008F04DEF08F003500410D8B42AEF08F070
:101050002CEF08F03CEF08F001C005F0010E066E21
:10106000052A35EF08F0D8900636052E33EF08F044
:10107000065080123BEF09F001C005F0010E066E2C
:10108000052A45EF08F0D8900636052E43EF08F004
:101090000650FF0A80163BEF09F002BE5BEF08F036
:1010A000025007E1100E015CD8B059EF08F05BEF79
:1010B00008F089EF08F0F80E0126FF0E0222035017
:1010C0000410D8B466EF08F068EF08F078EF08F085
:1010D00001C005F0010E066E052A71EF08F0D890E8
:1010E0000636052E6FEF08F0065081123BEF09F02F
:1010F00001C005F0010E066E052A81EF08F0D890B8
:101100000636052E7FEF08F00650FF0A81163BEFEA
:1011100009F002BE97EF08F0025007E1180E015CDB
:10112000D8B095EF08F097EF08F0C5EF08F0F00E93
:101130000126FF0E022203500410D8B4A2EF08F0DB
:10114000A4EF08F0B4EF08F001C005F0010E066E40
:10115000052AADEF08F0D8900636052EABEF08F063
:10116000065082123BEF09F001C005F0010E066E39
:10117000052ABDEF08F0D8900636052EBBEF08F023
:101180000650FF0A82163BEF09F002BED3EF08F0CB
:10119000025007E1200E015CD8B0D1EF08F0D3EF88
:1011A00008F001EF09F0E80E0126FF0E02220350BD
:1011B0000410D8B4DEEF08F0E0EF08F0F0EF08F02C
:1011C00001C005F0010E066E052AE9EF08F0D8907F
:1011D0000636052EE7EF08F0065083123BEF09F0C4
:1011E00001C005F0010E066E052AF9EF08F0D8904F
:1011F0000636052EF7EF08F00650FF0A83163BEF80
:1012000009F002BE0FEF09F0025007E1280E015C61
:10121000D8B00DEF09F00FEF09F03BEF09F0E00E49
:101220000126FF0E022203500410D8B41AEF09F071
:101230001CEF09F02CEF09F001C005F0010E066E5D
:10124000052A25EF09F0D8900636052E23EF09F080
:10125000065084123BEF09F001C005F0010E066E46
:10126000052A35EF09F0D8900636052E33EF09F040
:101270000650FF0A8416120021EE81F010EE09F0EC
:101280002F0EDBCFE3FFE806FCE222EEC0F010EE0B
:1012900039F02F0EDBCFE3FFE806FCE2010EBCECD9
:1012A00010F0400EBCEC10F0000E696E090E6924BF
:1012B000D96EDA6A000EDA22DF5009EC12F0692AE0
:1012C0002F0E696466EF09F068EF09F056EF09F038
:1012D000C60EBCEC10F0000E09EC12F0010E09EC89
:1012E00012F0020E09EC12F0960EBCEC10F0030E98
:1012F00009EC12F0040E09EC12F0050E09EC12F0E4
:10130000030E026EE80E016EA7EC11F0400EBCEC6D
:1013100010F0000E696E390E6924D96EDA6A000E7B
:10132000DA22DF5009EC12F0692A2F0E69649BEF74
:1013300009F09DEF09F08BEF09F0C60EBCEC10F040
:10134000000E09EC12F0010E09EC12F0020E09EC8D
:1013500012F0960EBCEC10F0030E09EC12F0040E25
:1013600009EC12F0050E09EC12F0030E026EE80E05
:10137000016EA7EC11F0400EBCEC10F0000E696E8F
:10138000090E6924D96EDA6A000EDA22DF5009EC00
:1013900012F0692A2F0E6964D0EF09F0D2EF09F03C
:1013A000C0EF09F0C60EBCEC10F0000E09EC12F014
:1013B000010E09EC12F0020E09EC12F0960EBCECD4
:1013C00010F0030E09EC12F0040E09EC12F0050EF9
:1013D00009EC12F0030E026EE80E016EA7EC11F09C
:1013E000400EBCEC10F0000E696E390E6924D96E07
:1013F000DA6A000EDA22DF5009EC12F0692A2F0EA9
:10140000696405EF0AF007EF0AF0F5EF09F0C60E80
:10141000BCEC10F0000E09EC12F0010E09EC12F019
:10142000020E09EC12F0960EBCEC10F0030E09EC63
:1014300012F0040E09EC12F0050E09EC12F0030E86
:10144000026EE80E016EA7EC11F0010EBCEC10F07C
:1014500012003F6E22EE30F010EE0FF02F0EDBCFB9
:10146000E3FFE806FCE2300E3F18D8A43AEF0AF09A
:101470003CEF0AF0A5EF0AF0010EBCEC10F0400EB4
:10148000BCEC10F0820EBCEC10F0220E096E060EC1
:101490000A6E33EC12F0400EBCEC10F0000E406E01
:1014A0000F0E4024D96EDA6A000EDA22DF5009EC02
:1014B00012F0402A3F0E406460EF0AF062EF0AF03B
:1014C00050EF0AF0C60EBCEC10F0000E09EC12F062
:1014D000010E09EC12F0020E09EC12F0960EBCECB3
:1014E00010F0030E09EC12F0040E09EC12F0050ED8
:1014F00009EC12F0D20EBCEC10F0430E09EC12F025
:10150000610E09EC12F0750E09EC12F0730E09EC85
:1015100012F0610E09EC12F03A0E09EC12F0200EF6
:1015200009EC12F0460E09EC12F06F0E09EC12F005
:101530006D0E09EC12F0650E09EC12F08282270E96
:10154000026EC00E016EA7EC11F0300E0E18D8A47A
:10155000ACEF0AF0AEEF0AF014EF0BF0010EBCECAA
:1015600010F0400EBCEC10F0820EBCEC10F0220E1D
:10157000096E060E0A6E33EC12F0400EBCEC10F051
:10158000000E406E0F0E4024D96EDA6A000EDA2289
:10159000DF5009EC12F0402A3F0E4064D2EF0AF00F
:1015A000D4EF0AF0C2EF0AF0C60EBCEC10F0000E49
:1015B00009EC12F0010E09EC12F0020E09EC12F027
:1015C000960EBCEC10F0030E09EC12F0040E09ECC0
:1015D00012F0050E09EC12F0D20EBCEC10F0430E26
:1015E00009EC12F0610E09EC12F0750E09EC12F024
:1015F000730E09EC12F0610E09EC12F03A0E09ECD0
:1016000012F0200E09EC12F0460E09EC12F0750EE5
:1016100009EC12F06E0E09EC12F08282270E026EB7
:10162000C00E016EA7EC11F0120083CF06F00F0E72
:101630009512000E0A6EF80E93160AC001F0010E04
:10164000026E012A26EF0BF0D8900236012E24EF0D
:101650000BF002509312070E81120AC001F0010E26
:10166000026E012A36EF0BF0D8900236012E34EFCD
:101670000BF00250FF0A8116000E086E000E076E76
:10168000074A082A08BE4EEF0BF0085009E10A0E7F
:10169000075CD8A04EEF0BF050EF0BF040EF0BF0D3
:1016A000000E096E09C001F0010E026E012A5BEF07
:1016B0000BF0D8900236012E59EF0BF00250831434
:1016C0000009D8A466EF0BF068EF0BF080EF0BF089
:1016D0000A50040DF3500924016E010E026E000E33
:1016E000036E012A77EF0BF0D89002360336012EF5
:1016F00074EF0BF002507212035073129AEF0BF05A
:101700000A50040DF3500924016E010E026E000E02
:10171000036E012A8FEF0BF0D89002360336012EAC
:101720008CEF0BF0021C046E031C056E0450721645
:1017300005507316092A030E0964A1EF0BF0A3EFFD
:101740000BF052EF0BF00A2A020E0A64AAEF0BF01C
:10175000ACEF0BF01BEF0BF07250701807E17350F9
:101760007118D8A4B6EF0BF0B8EF0BF0BBEF0BF08D
:101770007B06C1EF0BF00A0E7B6E72C070F073C077
:1017800071F07B50D8A4C7EF0BF0C9EF0BF0CDEF91
:101790000BF070C074F071C075F006C083FF000ECE
:1017A000956E120023EE40F011EE00F03F0EDBCFFD
:1017B000E3FFE806FCE223EE00F011EE40F03F0EFE
:1017C000DBCFE3FFE806FCE25A0E71EC11F0010EEC
:1017D000BCEC10F0400EBCEC10F0000E0101806F6C
:1017E000000E8025D96EDA6A010EDA22DF5009EC8C
:1017F00012F00101802B3F0E806501EF0CF003EF2A
:101800000CF0F0EF0BF0C60EBCEC10F0000E09EC83
:1018100012F0010E09EC12F0020E09EC12F0030EA8
:1018200009EC12F0960EBCEC10F0040E09EC12F06C
:10183000050E09EC12F0060E09EC12F0070E09EC89
:1018400012F0050E026EDC0E016EA7EC11F0400ED8
:10185000BCEC10F0000E0101806F400E8025D96EA7
:10186000DA6A010EDA22DF5009EC12F00101802B56
:101870003F0E80653EEF0CF040EF0CF02DEF0CF0CA
:10188000C60EBCEC10F0000E09EC12F0010E09ECD3
:1018900012F0020E09EC12F0030E09EC12F0960E93
:1018A000BCEC10F0040E09EC12F0050E09EC12F07D
:1018B000060E09EC12F0070E09EC12F0070E026E8C
:1018C000D00E016EA7EC11F0010EBCEC10F0000E72
:1018D0000101806FFF0E811AFF0E831A000E026E47
:1018E000C80E016EA7EC11F00101802B010E80657E
:1018F0007CEF0CF07EEF0CF06AEF0CF0000E71EC58
:1019000011F0120022EE90F010EE0DF02F0EDBCF52
:10191000E3FFE806FCE222EE60F010EE3DF02F0E51
:10192000DBCFE3FFE806FCE2320E71EC11F0010EB2
:10193000BCEC10F0400EBCEC10F0000E6D6E0D0E05
:101940006D24D96EDA6A000EDA22DF5009EC12F04B
:101950006D2A2F0E6D64AFEF0CF0B1EF0CF09FEF1E
:101960000CF0C60EBCEC10F0000E09EC12F0010EEB
:1019700009EC12F0020E09EC12F0960EBCEC10F01D
:10198000030E09EC12F0040E09EC12F0050E09EC3E
:1019900012F0050E026EDC0E016EA7EC11F0400E87
:1019A000BCEC10F0000E6D6E3D0E6D24D96EDA6A3F
:1019B000000EDA22DF5009EC12F06D2A2F0E6D6452
:1019C000E4EF0CF0E6EF0CF0D4EF0CF0C60EBCEC3C
:1019D00010F0000E09EC12F0010E09EC12F0020EEC
:1019E00009EC12F0960EBCEC10F0030E09EC12F0AC
:1019F000040E09EC12F0050E09EC12F0070E026E4F
:101A0000D00E016EA7EC11F0010EBCEC10F0000E30
:101A10006D6EFF0E811AFF0E831A000E026EC80E45
:101A2000016EA7EC11F06D2A010E6D641AEF0DF036
:101A30001CEF0DF009EF0DF0000E71EC11F012002B
:101A4000036E000E956E7FEF0DF08380838283849A
:101A500083868388838A838C838EB0EF0DF0839096
:101A60008382838483868388838A838C838EB0EF8A
:101A70000DF083908392838483868388838A838C0A
:101A8000838EB0EF0DF08390839283948386838856
:101A9000838A838C838EB0EF0DF08390839283943E
:101AA00083968388838A838C838EB0EF0DF0839036
:101AB0008392839483968398838A838C838EB0EFFA
:101AC0000DF083908392839483968398839A838C7A
:101AD000838EB0EF0DF083908392839483968398E6
:101AE000839A839C838EB0EF0DF0839083928394CE
:101AF00083968398839A839C839EB0EF0DF0035066
:101B0000016E026A0250000AD8B489EF0DF0B0EFFE
:101B10000DF00150300AD8B475EF0DF0010AD8B4B9
:101B20006BEF0DF0030AD8B461EF0DF0010AD8B4E1
:101B300057EF0DF0070AD8B44DEF0DF0010AD8B4F5
:101B400043EF0DF0030AD8B439EF0DF0010AD8B411
:101B50002FEF0DF00F0AD8B425EF0DF0B0EF0DF018
:101B60001200000E0A6E08BEBAEF0DF0B8EF0DF0CD
:101B7000C4EF0DF0081E071E061E056C000E06229F
:101B800007220822010E0A6E04BECBEF0DF0C9EF4A
:101B90000DF0D5EF0DF0041E031E021E016C000EA9
:101BA000022203220422010E0A1A000E0B6E000EFE
:101BB0000C6E000E0D6E000E0E6E05500610071016
:101BC0000810D8B4E6EF0DF0E8EF0DF01EEF0EF0C0
:101BD000010E096EF2EF0DF0D89005360636073685
:101BE0000836092A08AEF7EF0DF0F9EF0DF0ECEF2B
:101BF0000DF0D8900B360C360D360E360550015CC4
:101C0000065002580750035808500458D8A00BEF4C
:101C10000EF00DEF0EF016EF0EF00550015E0650BF
:101C2000025A0750035A0850045A0B80D8900832C1
:101C3000073206320532092EF9EF0DF00A50D8B4FA
:101C400024EF0EF026EF0EF02EEF0EF00E1E0D1EFE
:101C50000C1E0B6C000E0C220D220E220BC001F08C
:101C60000CC002F00DC003F00EC004F01200036EB1
:101C7000000E936E8CEF0EF08180818281848186CC
:101C80008188818A818C818EB9EF0EF0819081925A
:101C9000818481868188818A818C818EB9EF0EF062
:101CA00081908192819481868188818A818C818EC4
:101CB000B9EF0EF081908192819481968188818A1A
:101CC000818C818EB9EF0EF0819081928194819602
:101CD0008198818A818C818EB9EF0EF081908192FA
:101CE000819481968198819A818C818EB9EF0EF0D2
:101CF00081908192819481968198819A819C818E34
:101D0000B9EF0EF081908192819481968198819AA9
:101D1000819C819EB9EF0EF00350016E026A025061
:101D2000000AD8B496EF0EF0B9EF0EF00150300A69
:101D3000D8B482EF0EF0010AD8B478EF0EF0030A9F
:101D4000D8B46EEF0EF0010AD8B464EF0EF0070AB3
:101D5000D8B45AEF0EF0010AD8B450EF0EF0030ACF
:101D6000D8B446EF0EF0010AD8B43CEF0EF0B9EF4C
:101D70000EF01200000E0114096E000E02140A6E1D
:101D8000800E03140B6E7F0E04140C6E09500A10A3
:101D90000B100C10D8A4CFEF0EF0D1EF0EF0D9EF4E
:101DA0000EF0000E016E000E026E000E036E000EAD
:101DB000046E000E0514096E000E06140A6E800EE5
:101DC00007140B6E7F0E08140C6E09500A100B10CE
:101DD0000C10D8A4EEEF0EF0F0EF0EF0F8EF0EF0CE
:101DE000000E056E000E066E000E076E000E086EE9
:101DF00004AEFDEF0EF0FFEF0EF008EF0FF0016CF8
:101E0000021ED8B0022A031ED8B0032A800E045640
:101E100008AE0DEF0FF00FEF0FF018EF0FF0056C9D
:101E2000061ED8B0062A071ED8B0072A800E08560C
:101E3000000E011A000E021A000E031A800E041A78
:101E4000000E051A000E061A000E071A800E081A58
:101E50000550015C065002580750035808500458BA
:101E6000D8B035EF0FF037EF0FF03AEF0FF0D89012
:101E70003BEF0FF0D880120020EEBDF010EE09F01D
:101E80002F0EDBCFE3FFE806FCE221EEB1F010EE0F
:101E900039F02F0EDBCFE3FFE806FCE2400EBCEC8E
:101EA00010F0000E696E090E6924D96EDA6A000E10
:101EB000DA22DF5009EC12F0692A2F0E696463EF11
:101EC0000FF065EF0FF053EF0FF0C60EBCEC10F003
:101ED000000E09EC12F0010E09EC12F0020E09ECF2
:101EE00012F0960EBCEC10F0030E09EC12F0040E8A
:101EF00009EC12F0050E09EC12F0010E026EF40E60
:101F0000016EA7EC11F0400EBCEC10F0000E696EF3
:101F1000390E6924D96EDA6A000EDA22DF5009EC34
:101F200012F0692A2F0E696498EF0FF09AEF0FF004
:101F300088EF0FF0C60EBCEC10F0000E09EC12F0AA
:101F4000010E09EC12F0020E09EC12F0960EBCEC38
:101F500010F0030E09EC12F0040E09EC12F0050E5D
:101F600009EC12F0010E026EF40E016EA7EC11F0F6
:101F700012000000000103060C0C00001F1F0000EF
:101F8000000000000010180C06060C0C0C0C0C06CF
:101F900003011B1B000000001F1F06060606060C9F
:101FA00018100000000103060D0C00001F1F0000A8
:101FB0000A1100000010180C16060D0C0C0C0C0673
:101FC000030100000E1111001F1F16060606060C65
:101FD00018100000000103060C0C0000001F1F0079
:101FE0001B1B00000010180C06060C0C0C0C0C0639
:101FF00003010011110E06001F1F06060606060C3F
:1020000018100000000103060C0C0000001F1F0048
:102010001B1200000010180C04040C0C0C0C0C0615
:10202000030100000E1F0E001F1F0E151F170E00CC
:1020300018100000000103060C0C00001F1F000018
:10204000181800000010180C06060C0F0C0C0603E4
:10205000010000180000001F1F00060606060C18ED
:102060001000F80EF66E200EF76E000EF86E03EEFE
:1020700000F010EE80F00900F5CFEEFFE550E150E2
:10208000FAE1720EF66E1F0EF76E000EF86E02EE9B
:1020900000F010EEF0F00900F5CFEEFFE550E15052
:1020A000FAE1B20EF66E230EF76E000EF86E01EE38
:1020B00081F010EE60F00900F5CFEEFFE550E15041
:1020C000FAE1B20EF66E240EF76E000EF86E00EE18
:1020D000BDF010EE30F00900F5CFEEFFE550E15015
:1020E000FAE100EE70F00C0EEE6AE806FDE1000E7B
:1020F000F86E000178EF05F00000000103060C0CFB
:1021000000001F1F00001B1B000000100C0407082C
:1021100000000000000619000C0C0C0C0C0603015A
:10212000000011110E001F1F0708070807081710ED
:102130001000100010001F000000000103060C0C2E
:1021400000001F1F0000000000000017080708071C
:1021500000000619001000100C0C0C0C0C060301FA
:102160001B1B00000E001F1F08070807040818109B
:102170000008001F00000000086E83CF07F0000E6B
:10218000956E000E026E220E016E000E046E000EA1
:10219000036E15EC08F008C083FF000E026E210EDE
:1021A000016E000E046E010E036E15EC08F0000EB9
:1021B000026E210E016E000E046E000E036E15EC11
:1021C00008F007C083FF020E0818D8B4EAEF10F039
:1021D000ECEF10F0F4EF10F00804D8A4F2EF10F0D8
:1021E000F4EF10F0F8EF10F097EC12F0FAEF10F0B7
:1021F000B2EC12F01200000E026E220E016E000E02
:10220000046E000E036EEEEC06F0000E026E210E60
:10221000016E000E046E000E036EEEEC06F0000E72
:10222000956E97EC12F097EC12F097EC12F097EC99
:1022300012F097EC12F0380EBCEC10F097EC12F0A4
:1022400097EC12F0380EBCEC10F097EC12F0380E50
:10225000BCEC10F0380EBCEC10F0060EBCEC10F02C
:102260000C0EBCEC10F0010EBCEC10F01200000ED5
:10227000066E000E056E03500410D8B442EF11F044
:1022800044EF11F06CEF11F0010E076E4CEF11F0FE
:10229000D89003360436072A04AE51EF11F053EFFD
:1022A00011F048EF11F0D890053606360350015C66
:1022B00004500258D8A05FEF11F061EF11F066EF03
:1022C00011F00350015E0450025A0580D890043288
:1022D0000332072E53EF11F005C001F006C002F0E3
:1022E00012000A6E010ECB24016E026A000E022259
:1022F0000AC003F0046A84EC12F001C00BF002C0C3
:102300000CF00BC001F00CC002F0000E046E190EB0
:10231000036E37EC11F001C00BF002C00CF0FF0EA1
:102320000B16030E0C160BC008F00CC009F0D89069
:1023300009320832D890093208320850BE6E0BC0FC
:1023400008F0030E08160838F00BBD121200000E3C
:10235000046E000E036ECDEF11F0000E056E280E18
:102360000564B5EF11F0B7EF11F0B9EF11F0CBEF55
:1023700011F0000E066E020E0664C1EF11F0C3EFFD
:1023800011F0C5EF11F0C8EF11F0062ABBEF11F004
:10239000052AAFEF11F0034A042A0150035C0250F2
:1023A0000458D8A0D6EF11F0D8EF11F0ADEF11F02E
:1023B00012000000000103060C0C00001F1F0000AB
:1023C000030300000010180C06060C0C0C0C06038E
:1023D000010000030000001F1F00061E06060C1867
:1023E0001000000000000000030600000000001FB5
:1023F0001F00000000000000180C0C181818180C22
:102400000703001B1B0000001F1F06030303030636
:102410001C18076E83CF08F0000E956E000E026E3A
:10242000220E016E000E046E010E036E15EC08F014
:1024300007C083FF000E026E210E016E000E046EB7
:10244000010E036E15EC08F0000E026E210E016EF7
:10245000000E046E000E036E15EC08F008C083FF3A
:10246000B2EC12F0120044EF12F00D5009240B6E82
:10247000000E0A200C6E0BC0F6FF0CC0F7FF080020
:10248000F55009EC12F00D2A0D5009240B6E000EC8
:102490000A200C6E0BC0F6FF0CC0F7FF0800F550C9
:1024A0000009D8A456EF12F058EF12F035EF12F0F1
:1024B00012000000000103060C0C00001F1F0000AA
:1024C000000000000010180C06060C0C0C0C0C068A
:1024D00003011B1B000000001F1F06060606060C5A
:1024E0001810480E016EE80E026E010E036E000E0B
:1024F000046E0FC005F010C006F0076A086AB1EC60
:102500000DF00104CB6E120001500302F3CF05F071
:10251000F4CF06F001500402F350062602500302E5
:10252000F350062605C001F006C002F01200000EAE
:10253000026EB2EC12F0022A310E0264A2EF12F027
:10254000A4EF12F099EF12F012009494030ECA1245
:10255000CA840C0EBD6E000E106E640E0F6E71EC10
:1025600012F01200000E016E012A180E0164BBEF7A
:1025700012F0BDEF12F0B4EF12F0120074C001F0CF
:1025800075C002F01200070E93160F0E951212007E
:020000040020DA
:08000000FFFFFFFFFFFFFFFF00
:020000040030CA
:0E000000FF027100FF8380FF0FC00FE00F4072
:00000001FF
